{
  "contractName": "ExerciseC6CApp",
  "abi": [
    {
      "inputs": [
        {
          "name": "dataContract",
          "type": "address"
        }
      ],
      "payable": false,
      "stateMutability": "nonpayable",
      "type": "constructor"
    },
    {
      "constant": false,
      "inputs": [
        {
          "name": "id",
          "type": "string"
        },
        {
          "name": "amount",
          "type": "uint256"
        }
      ],
      "name": "addSale",
      "outputs": [],
      "payable": false,
      "stateMutability": "nonpayable",
      "type": "function"
    }
  ],
  "bytecode": "0x608060405234801561001057600080fd5b506040516020806104d28339810180604052810190808051906020019092919050505033600160006101000a81548173ffffffffffffffffffffffffffffffffffffffff021916908373ffffffffffffffffffffffffffffffffffffffff160217905550806000806101000a81548173ffffffffffffffffffffffffffffffffffffffff021916908373ffffffffffffffffffffffffffffffffffffffff1602179055505061040e806100c46000396000f300608060405260043610610041576000357c0100000000000000000000000000000000000000000000000000000000900463ffffffff1680635cd25e5314610046575b600080fd5b34801561005257600080fd5b506100896004803603810190808035906020019082018035906020019190919293919293908035906020019092919050505061008b565b005b600160009054906101000a900473ffffffffffffffffffffffffffffffffffffffff1673ffffffffffffffffffffffffffffffffffffffff163373ffffffffffffffffffffffffffffffffffffffff16141515610150576040517f08c379a000000000000000000000000000000000000000000000000000000000815260040180806020018281038252601c8152602001807f43616c6c6572206973206e6f7420636f6e7472616374206f776e65720000000081525060200191505060405180910390fd5b6000809054906101000a900473ffffffffffffffffffffffffffffffffffffffff1673ffffffffffffffffffffffffffffffffffffffff166356b35dd58484846101998661022f565b6040518563ffffffff167c010000000000000000000000000000000000000000000000000000000002815260040180806020018481526020018381526020018281038252868682818152602001925080828437820191505095505050505050600060405180830381600087803b15801561021257600080fd5b505af1158015610226573d6000803e3d6000fd5b50505050505050565b6000600160009054906101000a900473ffffffffffffffffffffffffffffffffffffffff1673ffffffffffffffffffffffffffffffffffffffff163373ffffffffffffffffffffffffffffffffffffffff161415156102f6576040517f08c379a000000000000000000000000000000000000000000000000000000000815260040180806020018281038252601c8152602001807f43616c6c6572206973206e6f7420636f6e7472616374206f776e65720000000081525060200191505060405180910390fd5b606482101561032d57610326606461031860058561039490919063ffffffff16565b6103cc90919063ffffffff16565b905061038f565b6101f48210156103655761035e606461035060078561039490919063ffffffff16565b6103cc90919063ffffffff16565b905061038f565b61038c606461037e600a8561039490919063ffffffff16565b6103cc90919063ffffffff16565b90505b919050565b6000808314156103a757600090506103c6565b81830290508183828115156103b857fe5b041415156103c257fe5b8090505b92915050565b600081838115156103d957fe5b049050929150505600a165627a7a72305820f78f59af630b1d1a393564943161b83b84ef4ef36a03a5319e758917b6b4bd250029",
  "source": "pragma solidity ^0.4.25;\r\n\r\n// It's important to avoid vulnerabilities due to numeric overflow bugs\r\n// OpenZeppelin's SafeMath library, when used correctly, protects agains such bugs\r\n// More info: https://www.nccgroup.trust/us/about-us/newsroom-and-events/blog/2018/november/smart-contract-insecurity-bad-arithmetic/\r\n\r\nimport \"../../node_modules/openzeppelin-solidity/contracts/math/SafeMath.sol\";\r\n\r\n\r\ncontract ExerciseC6CApp {\r\n    using SafeMath for uint256; // Allow SafeMath functions to be called for all uint256 types (similar to \"prototype\" in Javascript)\r\n\r\n    ExerciseC6C exercisec6c;\r\n    address private contractOwner;              // Account used to deploy contract\r\n\r\n    modifier requireContractOwner()\r\n    {\r\n        require(msg.sender == contractOwner, \"Caller is not contract owner\");\r\n        _;\r\n    }\r\n    \r\n    constructor\r\n                                (address dataContract\r\n                                ) \r\n                                public \r\n    {\r\n        contractOwner = msg.sender;\r\n        exercisec6c = ExerciseC6C(dataContract);\r\n    }\r\n\r\n      function calculateBonus\r\n                            (\r\n                                uint256 sales\r\n                            )\r\n                            internal\r\n                            view\r\n                            requireContractOwner\r\n                            returns(uint256)\r\n    {\r\n        if (sales < 100) {\r\n            return sales.mul(5).div(100);\r\n        }\r\n        else if (sales < 500) {\r\n            return sales.mul(7).div(100);\r\n        }\r\n        else {\r\n            return sales.mul(10).div(100);\r\n        }\r\n    }\r\n    function addSale\r\n                                (\r\n                                    string id,\r\n                                    uint256 amount\r\n                                )\r\n                                external\r\n                                requireContractOwner\r\n    {\r\n        exercisec6c.updateEmployee(\r\n                        id,\r\n                        amount,\r\n                        calculateBonus(amount)\r\n        );\r\n    }\r\n\r\n\r\n\r\n}\r\n\r\ncontract ExerciseC6C {\r\n\r\n    function updateEmployee\r\n                                (\r\n                                    string id,\r\n                                    uint256 sales,\r\n                                    uint256 bonus\r\n\r\n                                )\r\n                                external\r\n                                \r\n    {\r\n        \r\n    }\r\n\r\n}",
  "sourcePath": "D:\\repo\\BCND-C6-Exercises\\contracts\\ExerciseC6C\\ExcerciseC6App.sol",
  "compiler": {
    "name": "solc",
    "version": "0.4.25+commit.59dbf8f1.Emscripten.clang"
  },
  "schemaVersion": "2.0.2",
  "updatedAt": "2019-03-15T02:09:47.203Z"
}