{
  "contractName": "ExerciseC6B",
  "abi": [
    {
      "inputs": [],
      "payable": false,
      "stateMutability": "nonpayable",
      "type": "constructor"
    },
    {
      "constant": false,
      "inputs": [
        {
          "name": "amount",
          "type": "uint256"
        }
      ],
      "name": "safeWithdraw",
      "outputs": [],
      "payable": false,
      "stateMutability": "nonpayable",
      "type": "function"
    }
  ],
  "bytecode": "0x6080604052426000556001805534801561001857600080fd5b5033600360006101000a81548173ffffffffffffffffffffffffffffffffffffffff021916908373ffffffffffffffffffffffffffffffffffffffff1602179055506103fa806100696000396000f300608060405260043610610041576000357c0100000000000000000000000000000000000000000000000000000000900463ffffffff168063b0fd035b14610046575b600080fd5b34801561005257600080fd5b5061007160048036038101908080359060200190929190505050610073565b005b601e60005442101515156100ef576040517f08c379a00000000000000000000000000000000000000000000000000000000081526004018080602001828103825260178152602001807f52617465206c696d6974696e6720696e2065666665637400000000000000000081525060200191505060405180910390fd5b6101048160005461039990919063ffffffff16565b60008190555060006101216001805461039990919063ffffffff16565b60018190555060015490503273ffffffffffffffffffffffffffffffffffffffff163373ffffffffffffffffffffffffffffffffffffffff161415156101cf576040517f08c379a00000000000000000000000000000000000000000000000000000000081526004018080602001828103825260158152602001807f436f6e747261637473206e6f7420616c6c6f776564000000000000000000000081525060200191505060405180910390fd5b82600260003373ffffffffffffffffffffffffffffffffffffffff1673ffffffffffffffffffffffffffffffffffffffff1681526020019081526020016000205410151515610286576040517f08c379a00000000000000000000000000000000000000000000000000000000081526004018080602001828103825260108152602001807f496e73756669656e74732066756e64730000000000000000000000000000000081525060200191505060405180910390fd5b6102d883600260003373ffffffffffffffffffffffffffffffffffffffff1673ffffffffffffffffffffffffffffffffffffffff168152602001908152602001600020546103b590919063ffffffff16565b600260003373ffffffffffffffffffffffffffffffffffffffff1673ffffffffffffffffffffffffffffffffffffffff1681526020019081526020016000208190555060015481141515610394576040517f08c379a00000000000000000000000000000000000000000000000000000000081526004018080602001828103825260138152602001807f54686174206973206e6f7420616c6c6f7765640000000000000000000000000081525060200191505060405180910390fd5b505050565b600081830190508281101515156103ac57fe5b80905092915050565b60008282111515156103c357fe5b8183039050929150505600a165627a7a7230582043385fe32e56592e5332bb730ccd9e06cbaeb0b293ac8305e95478ef4cb72db30029",
  "source": "pragma solidity ^0.4.25;\r\n\r\n// It's important to avoid vulnerabilities due to numeric overflow bugs\r\n// OpenZeppelin's SafeMath library, when used correctly, protects agains such bugs\r\n// More info: https://www.nccgroup.trust/us/about-us/newsroom-and-events/blog/2018/november/smart-contract-insecurity-bad-arithmetic/\r\n\r\nimport \"../node_modules/openzeppelin-solidity/contracts/math/SafeMath.sol\";\r\n\r\n\r\ncontract ExerciseC6B {\r\n    using SafeMath for uint256; // Allow SafeMath functions to be called for all uint256 types (similar to \"prototype\" in Javascript)\r\n    uint256 private enabled = block.timestamp;\r\n    uint256 private counter = 1;\r\n    mapping(address=>uint256) private sales;\r\n    /********************************************************************************************/\r\n    /*                                       DATA VARIABLES                                     */\r\n    /********************************************************************************************/\r\n\r\n\r\n    address private contractOwner;                  // Account used to deploy contract\r\n\r\n\r\n    constructor\r\n                (\r\n                )\r\n                public \r\n    {\r\n        contractOwner = msg.sender;\r\n    }\r\n   \r\n    /********************************************************************************************/\r\n    /*                                       FUNCTION MODIFIERS                                 */\r\n    /********************************************************************************************/\r\n\r\n    // Modifiers help avoid duplication of code. They are typically used to validate something\r\n    // before a function is allowed to be executed.\r\n\r\n    /**\r\n    * @dev Modifier that requires the \"ContractOwner\" account to be the function caller\r\n    */\r\n    modifier requireContractOwner()\r\n    {\r\n        require(msg.sender == contractOwner, \"Caller is not contract owner\");\r\n        _;\r\n    }\r\n\r\n    modifier rateLimit(uint time) {\r\n        require(block.timestamp >= enabled,\"Rate limiting in effect\");\r\n        enabled = enabled.add(time);\r\n        _;\r\n    }\r\n\r\n    modifier entrancyGuard() {\r\n      counter = counter.add(1);\r\n      uint256 guard = counter;\r\n        _;\r\n        require(guard == counter,\"That is not allowed\");\r\n    }\r\n\r\n    /********************************************************************************************/\r\n    /*                                     SMART CONTRACT FUNCTIONS                             */\r\n    /********************************************************************************************/\r\n\r\n  function  safeWithdraw(uint256 amount) external rateLimit(30) entrancyGuard(){\r\n      //Checks\r\n    require(msg.sender == tx.origin,\"Contracts not allowed\");\r\n    require(sales[msg.sender] >= amount,\"Insufients funds\"); \r\n    //Effects\r\n     //amount = sales[msg.sender];\r\n    sales[msg.sender] = sales[msg.sender].sub(amount);\r\n    //Interaction\r\n      //msg.sender.trasfer(amount);\r\n    }\r\n    \r\n\r\n    \r\n}\r\n\r\n",
  "sourcePath": "D:\\repo\\BCND-C6-Exercises\\contracts\\ExerciseC6B.sol",
  "compiler": {
    "name": "solc",
    "version": "0.4.25+commit.59dbf8f1.Emscripten.clang"
  },
  "schemaVersion": "2.0.2",
  "updatedAt": "2019-03-15T02:01:38.337Z"
}